:100000000C9421010C944B010C944B010C944B016A
:100010000C944B010C944B010C944B010C944B0130
:100020000C944B010C944B010C944B010C944B0120
:100030000C944B010C944B010C944B010C944B0110
:100040000C944B010C944B010C944B010C944B0100
:100050000C944B010C944B010C944B010C94DE104E
:100060000C944B010C94BC140C944B010C944B015C
:100070000C944B010C944B010C944B010C944B01D0
:100080000C944B010C944B010C944B010C944B01C0
:100090000C94FD140C944B010C944B010C944B01EB
:1000A0000C944B010C944B010C944B010C944B01A0
:1000B0000C944B010C944B010C944B010C944B0190
:1000C0000C944B010C944B010C944B010C943E1579
:1000D0000C944B010C944B010C947F150C944B0128
:1000E0000C944B0100002100240027002A002D0061
:1000F0003000330001010000040107010A01000083
:100100002200250028002B002E00310034000201BF
:100110000000050108010B0100002000230026005B
:1001200029002C002F00320000010000030106010D
:10013000090105050505070508080808020202026D
:100140000A0A080804040404010101010101010173
:100150000303030303030303040707070C0C0C0C3E
:100160000C0C0C0C02020202060606060606060627
:100170000B0B0B0B0B0B0B0B0102102020080810B4
:100180002040102040800201020108040201010207
:1001900004081020408080402010080402018004E0
:1001A000020180402010080402010804020101023B
:1001B0000408102040800102040810204080000044
:1001C000090A02080B0C0D070603040100000000D9
:1001D000000000000000000000000000000000001F
:1001E00000000000000000000000100F0E000000E2
:1001F00000000000000000000000000000000000FF
:1002000000000000494E46494E4954594E414ECDDA
:10021000CCCC3D0AD7233C17B7D13877CC2B3295BD
:1002200095E6241FB14F0A000020410000C842009B
:10023000401C4620BCBE4CCA1B0E5AAEC59D740065
:10024000141711241FBECFEFD1E2DEBFCDBF14E0E3
:10025000A0E0B2E0E8E9F5E300E00BBF02C00790E0
:100260000D92AA35B107D9F718E0AAE5B4E001C0AC
:100270001D92A633B107E1F712E0C2E4D2E004C058
:100280002297FE010E94841AC034D107C9F70E9448
:10029000EB0F0C94CA1A0C940000A0E0B0E0E3E568
:1002A000F1E00C94991AEC015B016115710519F0EC
:1002B000FB0191838083F9908F2D90E00E94881A32
:1002C000892BC9F7FDE2FF1621F4F990EE24E3949F
:1002D00005C02BE2F21609F4F990EE248E010150CC
:1002E0001040C80164E072E043E050E00E94DC038B
:1002F000892B01F58E010E5F1F4FC80167E072E088
:1003000045E050E00E94DC03892B19F48E01095F5F
:100310001F4FA114B10419F0F50111830083E0FC13
:1003200004C070E090E080E814C070E090E080E8E5
:100330006FEF08C1C8016CE072E043E050E00E943A
:10034000DC03892B69F4A114B10429F470E090E076
:1003500080EC6FE7F7C02296F501D183C083F6CF1A
:100360008824992440E050E060E070E0EF2DE053F5
:10037000EA30A0F5F2E0EF2A8E2D90E09C01287083
:100380003070E2FE06C0232B79F50894811C911C85
:100390002BC0232B19F0089481089108DB01CA01B6
:1003A00012E0880F991FAA1FBB1F1A95D1F7480F9B
:1003B000591F6A1F7B1F440F551F661F771F4E0F63
:1003C000511D611D711D483929E9520729E962074C
:1003D00029E1720748F084E0E82A06C0EE3F31F4D4
:1003E000E3FC39C098E0E92AF990C0CFE53311F079
:1003F000E53189F529912D3219F4E0E1EE2A05C0A5
:100400002B3219F081E090E003C0299182E090E066
:10041000E22FE053EA3018F0C81BD90B1CC020E0D3
:1004200030E0FCE020383F075CF4C901880F991FD9
:10043000880F991F280F391F220F331F2E0F311DD0
:10044000E991E053EA3068F3E4FE03C0309521956A
:100450003F4F820E931ECE2CDD24E1FE07C0A11477
:10046000B10421F02197F501D183C083CB01BA01FA
:100470000E94E6187B018C01F3E0CF22DD2423E00B
:10048000C216D10421F417FB109517F910955701E6
:100490006801C801B70120E030E040E050E00E9470
:1004A0004918882309F44AC097FE0DC023E2E22EC2
:1004B00022E0F22E9094819491089394C0E2D0E0CF
:1004C00000E010E012C09BE3E92E92E0F92EF6CF97
:1004D000F7012591359145915491C601B5010E94CE
:1004E0009C195B016C018C1A9D0A8C169D0684F781
:1004F000D595C7950F5F1F4F0630110529F08CEF7A
:100500009FEFE80EF91EF1CFC501D6017C018D01E8
:100510008C2D880F8D2D881F8F3F51F0C601B5019E
:1005200020E030E040E050E00E944918882331F498
:1005300082E290E090933508809334087E2D9F2DC1
:10054000802F612F272F392F482F562FB901CA012D
:10055000CDB7DEB7ECE00C94B51A2F923F925F92C4
:100560006F927F928F929F92AF92BF92CF92DF92C3
:10057000EF92FF920F931F93CF93DF938C011B0198
:10058000EA016115710519F0FB01918380832097C1
:1005900049F0CE010297839728F020E030E040E058
:1005A00050E0F6C0F801A1908F018A2D90E00E94E2
:1005B000881A892BB9F7FDE2AF1631F4F801A19042
:1005C0008F015524539407C0FBE2AF1619F4F801CC
:1005D000A1908F015524209719F0C031D105C1F4A5
:1005E000F0E3AF1679F4F8018081883711F088358F
:1005F00049F4F801A1800E5F1F4FF2E05F2AC0E1CD
:10060000D0E006C0209721F480E3A816E9F427C0C3
:10061000C830D10531F1C930D10524F4C230D1053B
:1006200031F50CC0CA30D10589F0C031D105F9F4DB
:10063000C12CD12CE12CB8E0FB2E28C0C12CD12C30
:10064000E12CA0E4FA2E22C0CAE0D0E0FCECCF2ED0
:10065000FCECDF2EFCECEF2EFCE0FF2E17C0C8E018
:10066000D0E0C12CD12CE12CE0E1FE2E0FC09E0188
:10067000442737FD4095542F60E070E080E090E81B
:100680000E94311AC901DA016C017D0120E030E0DD
:1006900040E050E060E03E01882477FC8094982C94
:1006A00070EDB72EBA0CE9E0EB1570F48A2D815489
:1006B0008A3118F499ECB92E06C08A2D81568A31F8
:1006C00050F589EAB82EBA0C8B2D90E08C179D0757
:1006D00014F56F3FE1F0C216D306E406F506B0F05C
:1006E000CA01B901A40193010E94FF199B01AC0149
:1006F0002B0D311D411D511D2130F0E03F07F0E071
:100700004F07F0E85F0710F461E001C06FEFF801F8
:10071000A1908F01C5CF2114310481F0662331F0FF
:1007200001501040F1011183008308C051FE1AC02E
:1007300002501040F1011183008314C067FF12C002
:1007400050FC05C02FEF3FEF4FEF5FE704C020E004
:1007500030E040E050E882E290E0909335088093EA
:10076000340816C050FE08C050954095309521952C
:100770003F4F4F4F5F4F0CC057FF0AC082E290E0DF
:1007800090933508809334082FEF3FEF4FEF5FE7EA
:10079000B901CA01DF91CF911F910F91FF90EF90A6
:1007A000DF90CF90BF90AF909F908F907F906F9091
:1007B0005F903F902F900895FB01DC014150504025
:1007C00088F08D9181341CF08B350CF4805E65913E
:1007D00061341CF06B350CF4605E861B611171F3A3
:1007E000990B0895881BFCCFFC018191861721F09D
:1007F0008823D9F7992708953197CF010895FB01F0
:1008000051915523A9F0BF01DC014D9145174111CC
:10081000E1F759F4CD010190002049F04D914015C8
:100820004111C9F3FB014111EFCF81E090E0019745
:100830000895FA01CF93FF93EF93223044F12532CC
:1008400034F5C22FE894CA3049F497FB3EF49095F2
:100850008095709561957F4F8F4F9F4F2C2F332739
:1008600044275527FF93EF930E94311AEF91FF9190
:10087000605D6A330CF0695D6193B901CA01605033
:1008800070408040904051F716F4CDE2C193108241
:100890008F919F91CF910C944D04DC01FC01672F47
:1008A00071917723E1F7329704C07C916D93708347
:1008B0006291AE17BF07C8F30895CF93DF93AC01E1
:1008C000ECE5F3E0C1E0D0E0608171816417750769
:1008D00064F5FE013197EE0FFF1FEE0FFF1FDF01E2
:1008E000A85ABC4F2D913C91EA5AFC4F0190F081DF
:1008F000E02D421B530BCC0FDD1FCC0FDD1FCA5A5E
:10090000DC4F888199818E1B9F0B621B730B9C01AE
:10091000429FC001439F900D529F900D11240E9451
:100920001E1ACB018E0F9F1F10C09E012F5F2196B4
:100930003496CD33D10541F62D3319F080E090E0A7
:1009400004C080914604909147046FEF73E0681BE8
:10095000790B882777FD8095982F0E94E818DF9102
:10096000CF910895CF93DF93AC01EAE5F3E0C1E0C6
:10097000D0E0608171814617570764F5FE01319719
:10098000EE0FFF1FEE0FFF1FDF01AA5ABC4F2D9184
:100990003C91E85AFC4F0190F081E02D421B530B33
:1009A000CC0FDD1FCC0FDD1FC85ADC4F8881998129
:1009B0008E1B9F0B621B730B9C01429FC001439FC8
:1009C000900D529F900D11240E941E1A9B012E0F14
:1009D0003F1F10C09E012F5F21963496CD33D10565
:1009E00041F62D3319F020E030E004C02091480496
:1009F00030914904B901882777FD8095982F0E948E
:100A0000E818DF91CF91089580E00E94F20F2FEF58
:100A100033E0281B390B3093CD052093CC05809112
:100A2000CA059091CB05281739071CF086E060E0D5
:100A300002C086E061E00E94E01108952F923F928B
:100A40004F925F926F927F928F929F92AF92BF92DE
:100A5000CF92DF92EF92FF920F931F931B012C0115
:100A600039014A0160918204709183048091840469
:100A700090918504209192043091930440919404C4
:100A8000509195040E94981918161CF487E161E0B2
:100A900002C087E160E00E94E011609186047091DD
:100AA0008704809188049091890420919604309164
:100AB000970440919804509199040E94981918162F
:100AC0001CF48AE161E002C08AE160E00E94E0116A
:100AD00060918A0470918B0480918C0490918D04B4
:100AE00020919A0430919B0440919C0450919D0464
:100AF0000E94981918161CF48DE161E002C08DE186
:100B000060E00E94E01160918E0470918F048091EA
:100B100090049091910420919E0430919F04409103
:100B2000A0045091A1040E94981918161CF48FE19A
:100B300061E002C08FE160E00E94E0112114310405
:100B40004104510421F088E161E00E94E011611448
:100B500071048104910421F08BE161E00E94E011B5
:100B6000E114F1040105110521F08EE161E00E941C
:100B7000E011A114B104C104D10421F08FEF61E0B0
:100B80000E94E01180915A04882341F482E00E947F
:100B90006B12019719F022243324210180915B0408
:100BA000882341F482E10E946B12019719F06624B8
:100BB0007724430180915C04882309F026C184E1F5
:100BC0000E946B12019709F420C1EE24FF248701D3
:100BD0001CC1211431044104510409F43FC00E9496
:100BE000341120915E0430915F0440916004509173
:100BF0006104621B730B840B950B0E94E618209115
:100C0000A2043091A3044091A4045091A5040E9431
:100C100098198823BCF086E161E00E94E0110E94EF
:100C2000341160935E0470935F048093600490932A
:100C3000610486E160E00E94E01108942108310817
:100C40004108510880915A04882341F482E00E94AF
:100C50006B12019719F022243324210161147104CD
:100C60008104910409F43FC00E9434112091620470
:100C7000309163044091640450916504621B730BCE
:100C8000840B950B0E94E6182091A6043091A704CE
:100C90004091A8045091A9040E9498198823BCF09F
:100CA00089E161E00E94E0110E94341160936204C6
:100CB00070936304809364049093650489E160E019
:100CC0000E94E011089461087108810891088091E0
:100CD0005B04882341F482E10E946B12019719F0B2
:100CE000662477244301E114F1040105110509F498
:100CF0003FC00E94341120916604309167044091F6
:100D0000680450916904621B730B840B950B0E945D
:100D1000E6182091AA043091AB044091AC045091A4
:100D2000AD040E9498198823BCF08CE161E00E9418
:100D3000E0110E94341160936604709367048093FD
:100D40006804909369048CE160E00E94E0110894CB
:100D5000E108F1080109110980915C04882341F43C
:100D600084E10E946B12019719F0EE24FF248701A1
:100D7000A114B104C104D10499F10E94341120914D
:100D80006A0430916B0440916C0450916D04621BB5
:100D9000730B840B950B0E94E6182091AE043091E2
:100DA000AF044091B0045091B1040E949819882377
:100DB000BCF084E061E00E94E0110E943411609375
:100DC0006A0470936B0480936C0490936D0484E0C8
:100DD00060E00E94E0110894A108B108C108D108A0
:100DE0000E94261120916E0430916F04409170048E
:100DF00050917104621B730B840B950B645F7140FF
:100E00008040904060F00E9404050E94261160938B
:100E10006E0470936F048093700490937104D401F6
:100E2000C301820D931DA41DB51D8E0D9F1DA01F16
:100E3000B11F8A0D9B1DAC1DBD1D0097A105B105FD
:100E400009F0C7CE8EE160E00E94E011E0909204CC
:100E5000F0909304009194041091950460918204A1
:100E6000709183048091840490918504A801970176
:100E70000E9498191816DCF4609172047091730442
:100E800080917404909175040E94E61820914203A9
:100E90003091430340914403509145030E944D1803
:100EA0009B01AC01C801B7010E94E5171AC060910F
:100EB00072047091730480917404909175040E947F
:100EC000E61820914203309143034091440350912E
:100ED00045030E944D189B01AC01C801B7010E9457
:100EE000E417609392047093930480939404909316
:100EF0009504E0909604F090970400919804109166
:100F0000990460918604709187048091880490917F
:100F10008904A80197010E9498191816DCF46091C1
:100F200076047091770480917804909179040E94FE
:100F3000E6182091460330914703409148035091B1
:100F400049030E944D189B01AC01C801B7010E94E2
:100F5000E5171AC060917604709177048091780447
:100F6000909179040E94E61820914603309147033E
:100F700040914803509149030E944D189B01AC01D8
:100F8000C801B7010E94E417609396047093970418
:100F90008093980490939904E0909A04F0909B04B5
:100FA00000919C0410919D0460918A0470918B04BF
:100FB00080918C0490918D04A80197010E9498194A
:100FC0001816DCF460917A0470917B0480917C04A3
:100FD00090917D040E94E61820914A0330914B03C2
:100FE00040914C0350914D030E944D189B01AC0160
:100FF000C801B7010E94E5171AC060917A04709188
:101000007B0480917C0490917D040E94E6182091DD
:101010004A0330914B0340914C0350914D030E9481
:101020004D189B01AC01C801B7010E94E417609301
:101030009A0470939B0480939C0490939D04E09089
:101040009E04F0909F040091A0041091A10460916F
:101050008E0470918F048091900490919104A80166
:1010600097010E9498191816DCF460917E04709123
:101070007F0480918004909181040E94E618209161
:101080004E0330914F0340915003509151030E9401
:101090004D189B01AC01C801B7010E94E5171AC0A9
:1010A00060917E0470917F0480918004909181040E
:1010B0000E94E61820914E0330914F034091500357
:1010C000509151030E944D189B01AC01C801B7011A
:1010D0000E94E41760939E0470939F048093A00481
:1010E0009093A1041F910F91FF90EF90DF90CF900C
:1010F000BF90AF909F908F907F906F905F904F9038
:101100003F902F900895DF93CF93CDB7DEB7C456AD
:10111000D0400FB6F894DEBF0FBECDBFDE011196F2
:10112000E3E0F2E088E001900D928150E1F7FE01EA
:1011300039968CE5DF011D928A95E9F76091BE042E
:101140007091BF048091C0049091C1046F5F7F4F84
:101150008F4F9F4FAE01485F5F4F2AE030E00E9403
:10116000190488EE97E00E94F51688EE97E0BE011C
:101170006F5F7F4F0E944D1388EE97E060E072E052
:101180000E944D13CC59DF4F0FB6F894DEBF0FBE4F
:10119000CDBFCF91DF910895682F772767FD7095B8
:1011A00084EC94E00E94F4039C019093C905809321
:1011B000C80580E0232B09F081E008958091C805DF
:1011C0009091C905019660E070E00E944D0108957C
:1011D0006F927F928F929F92AF92BF92CF92DF9247
:1011E000EF92FF920F931F938EE40E94CC08882306
:1011F00009F476C08091C8059091C905019660E018
:1012000070E04AE050E00E94AD026093BA0470932F
:10121000BB048093BC049093BD042091BE04309124
:10122000BF044091C0045091C1042F5F3F4F4F4F06
:101230005F4F621773078407950769F084EC94E0A9
:1012400067E672E00E94FF03009729F488EE97E0BA
:101250006CE672E01EC08AE20E94CC08882351F13D
:1012600010E080E002C01E278F5FE82FF0E0EC5313
:10127000FB4FE081EA32B9F70E94DE080E94B51800
:10128000212F30E026173707D1F088EE97E06CEA7F
:1012900072E00E942E134091BE045091BF046091F1
:1012A000C0047091C10488EE97E00E941B140E9454
:1012B0008308EEC588EE97E061ED72E0EACF809199
:1012C000BA049091BB04A091BC04B091BD0480937A
:1012D000BE049093BF04A093C004B093C10418C08F
:1012E0008AE20E94CC08882399F088EE97E061E0BA
:1012F00073E00E942E134091BE045091BF04609190
:10130000C0047091C10488EE97E00E941B14C0C510
:1013100087E40E94CC08882309F4ABC40E94DE084D
:101320000E94B5186430710509F41FC46530710559
:101330002CF46230710508F09CC40DC06B3571054A
:1013400009F457C46C35710509F457C46A35710541
:1013500009F08FC44BC488E50E94CC08882331F182
:101360000E94DE087B018C016091C20470E0882736
:1013700077FD8095982F0E94E81820919204309173
:10138000930440919404509195040E949C199B01F0
:10139000AC01C801B7010E94E51760938204709305
:1013A0008304809384049093850410C080919204F8
:1013B00090919304A0919404B09195048093820439
:1013C00090938304A0938404B093850489E50E94DC
:1013D000CC08882331F10E94DE087B018C016091EA
:1013E000C20470E0882777FD8095982F0E94E81846
:1013F000209196043091970440919804509199045B
:101400000E949C199B01AC01C801B7010E94E5171D
:101410006093860470938704809388049093890472
:1014200010C08091960490919704A0919804B09177
:1014300099048093860490938704A0938804B093C2
:1014400089048AE50E94CC08882331F10E94DE08D5
:101450007B018C016091C20470E0882777FD809544
:10146000982F0E94E81820919A0430919B04409193
:101470009C0450919D040E949C199B01AC01C801E1
:10148000B7010E94E51760938A0470938B048093E0
:101490008C0490938D0410C080919A0490919B04C9
:1014A000A0919C04B0919D0480938A0490938B0436
:1014B000A0938C04B0938D0485E40E94CC0888230B
:1014C00061F10E94DE087B018C018091C3048823B6
:1014D00011F061E002C06091C20470E0882777FDDE
:1014E0008095982F0E94E81820919E0430919F04C7
:1014F0004091A0045091A1040E949C199B01AC0151
:10150000C801B7010E94E51760938E0470938F04A1
:10151000809390049093910410C080919E049091C8
:101520009F04A091A004B091A10480938E04909395
:101530008F04A0939004B093910486E40E94CC0899
:101540008823E1F00E94DE087B018C016093B204E5
:101550007093B3048093B4049093B50420E030E01A
:1015600040E050E00E949819181644F4E0924A04B2
:10157000F0924B0400934C0410934D04609182044C
:101580007091830480918404909185042091920449
:101590003091930440919404509195040E949819BD
:1015A000882324F081E080935A0402C010925A04E8
:1015B00060918604709187048091880490918904D9
:1015C0002091960430919704409198045091990489
:1015D0000E949819882324F081E080935B0402C064
:1015E00010925B0460918A0470918B0480918C044A
:1015F00090918D0420919A0430919B0440919C0419
:1016000050919D040E949819882324F081E08093D2
:101610005C0402C010925C0460918E0470918F048F
:10162000809190049091910420919E0430919F04A8
:101630004091A0045091A1040E949819882324F09D
:1016400081E080935D0402C010925D046091820489
:1016500070918304809184049091850420E030E0AF
:1016600048E453E40E949819181664F480E090E06E
:10167000A8E4B3E48093820490938304A093840449
:10168000B0938504609186047091870480918804EA
:101690009091890420E030E048E453E40E949819D6
:1016A000181664F480E090E0A8E4B3E48093860424
:1016B00090938704A0938804B093890460918A046E
:1016C00070918B0480918C0490918D0420E030E027
:1016D00040EF52E40E949819181664F480E090E0FC
:1016E000A0EFB2E480938A0490938B04A0938C04BF
:1016F000B0938D04E0905203F09053030091540393
:101700001091550360914A0470914B0480914C04F0
:1017100090914D04A80197010E949819181644F45D
:10172000E0924A04F0924B0400934C0410934D0451
:101730006091820470918304809184049091850467
:101740002091920430919304409194045091950417
:101750000E94E4177B018C0120E030E040E050E083
:101760000E949819181624F017FB109517F9109578
:10177000C801B701209142033091430340914403D3
:10178000509145030E949C190E94BA1860937204FC
:10179000709373048093740490937504609186042D
:1017A0007091870480918804909189042091960417
:1017B0003091970440919804509199040E94E41745
:1017C0007B018C0120E030E040E050E00E9498195D
:1017D000181624F017FB109517F91095C801B701DA
:1017E00020914603309147034091480350914903AB
:1017F0000E949C190E94BA18609376047093770433
:10180000809378049093790460918A0470918B049A
:1018100080918C0490918D0420919A0430919B04C6
:1018200040919C0450919D040E94E4177B018C011F
:1018300020E030E040E050E00E949819181624F0B3
:1018400017FB109517F91095C801B70120914A03AD
:1018500030914B0340914C0350914D030E949C19D1
:101860000E94BA1860937A0470937B0480937C047E
:1018700090937D0460918E0470918F048091900408
:101880009091910420919E0430919F044091A00476
:101890005091A1040E94E4177B018C0120E030E00C
:1018A00040E050E00E949819181624F017FB10959C
:1018B00017F91095C801B70120914E0330914F03DD
:1018C00040915003509151030E949C190E94BA18F4
:1018D00060937E0470937F048093800490938104CE
:1018E000A0904A04B0904B04C0904C04D0904D049A
:1018F00060917204709173048091740490917504E6
:101900000E94E6187B018C01C601B50120914203BB
:101910003091430340914403509145030E949C1928
:1019200020EC31EE44E65CE40E944D189B01AC01D2
:10193000C801B7010E944D183B014C01609176042B
:101940007091770480917804909179040E94E61850
:101950007B018C01C601B5012091460330914703FC
:1019600040914803509149030E949C1920EC31EEAC
:1019700044E65CE40E944D189B01AC01C801B7012C
:101980000E944D187B018C01C401B301A80197018D
:101990000E949819181614F03701480160917A04D2
:1019A00070917B0480917C0490917D040E94E618E4
:1019B0007B018C0160914A0370914B0380914C0331
:1019C00090914D0320914A0430914B0440914C0476
:1019D00050914D040E949C1920EC31EE44E65CE4E9
:1019E0000E944D189B01AC01C801B7010E944D181F
:1019F0007B018C01C401B301A80197010E949819D1
:101A0000181614F0370148016092B6047092B704BA
:101A10008092B8049092B90460917204709173043A
:101A2000809174049091750461157105810591058B
:101A300081F00E94E6189B01AC01C401B3010E9431
:101A40004D186093A2047093A3048093A404909310
:101A5000A504609176047091770480917804909148
:101A600079046115710581059105B1F00E94E618B0
:101A70009B01AC016091B6047091B7048091B804E9
:101A80009091B9040E944D186093A6047093A70426
:101A90008093A8049093A90460917A0470917B04C8
:101AA00080917C0490917D046115710581059105FB
:101AB000B1F00E94E6189B01AC016091B6047091F0
:101AC000B7048091B8049091B9040E944D186093B6
:101AD000AA047093AB048093AC049093AD0460911E
:101AE0007E0470917F04809180049091810461153F
:101AF000710581059105B1F00E94E6189B01AC01CA
:101B00006091B6047091B7048091B8049091B904C3
:101B10000E944D186093AE047093AF048093B0049C
:101B20009093B10460917204709173048091740475
:101B30009091750420917604309177044091780457
:101B400050917904E0907A04F0907B0400917C0439
:101B500010917D04A0907E04B0907F04C09080041A
:101B6000D09081040E941E058DC180E50E94CC08A2
:101B7000882321F4EE24FF24870106C00E94DE089A
:101B80000E94BA187B018C0183E50E94CC0888234F
:101B900061F00E94DE0820E030E04AE754E40E9451
:101BA0009C190E94BA187B018C010E942611609337
:101BB0006E0470936F04809370049093710402C05C
:101BC0000E9404050E94261120916E0430916F043A
:101BD0004091700450917104621B730B840B950B40
:101BE0006E157F058007910758F343C01092C20419
:101BF00040C081E08093C2043CC088E50E94CC08CC
:101C0000882351F00E94DE0860939204709393043D
:101C1000809394049093950489E50E94CC088823CE
:101C200051F00E94DE0860939604709397048093AD
:101C30009804909399048AE50E94CC08882351F077
:101C40000E94DE0860939A0470939B0480939C0426
:101C500090939D0485E40E94CC08882351F00E9453
:101C6000DE0860939E0470939F048093A004909379
:101C7000A1048DE40E94CC08882309F403C10E94CA
:101C8000DE080E94B51865367105B9F16636710532
:101C9000CCF46235710509F4DEC0633571054CF48E
:101CA0006035710509F4CFC06135710509F0EAC0EE
:101CB000CDC06335710509F4D1C06435710509F0F3
:101CC000E1C0D0C06836710551F16936710544F440
:101CD00066367105A9F06736710509F0D3C019C0E1
:101CE0006C36710509F448C06D36710509F451C0B0
:101CF0006936710509F0C6C027C08FE160E002C0F7
:101D00008FE161E00E94E0116091CE0584E070E017
:101D100003C084E060E070E00E942210B3C083E55D
:101D20000E94CC08882309F4ADC00E94DE080E94FE
:101D3000B518DC01CB010E945D040E94B5187093B8
:101D4000CB056093CA059EC088EE97E061E373E01F
:101D50000E942E1380E00E94F20F0E94B204AB0199
:101D6000BC0188EE97E00E94B1148EE40E94CC087A
:101D7000882309F48DC086C083E50E94CC0888239F
:101D800009F480C00E94DE080E94BA186093CE0554
:101D900079C083E50E94CC08882371F00E94DE0898
:101DA0000E94B518DC01CB010E945D040E94B518A9
:101DB0007093CB056093CA050E94261160936E0450
:101DC00070936F04809370049093710430C00E94EC
:101DD000261120916E0430916F044091700450914F
:101DE0007104621B730B840B950B695E734080401A
:101DF0009040D8F088EE97E061E373E00E942E13E4
:101E000080E00E94F20F0E94B204AB01BC0188EE98
:101E100097E00E94B1140E94261160936E047093A3
:101E20006F0480937004909371040E9404052091C4
:101E3000CC053091CD058091CA059091CB0528172E
:101E400039072CF21FC08AE061E002C08AE060E03E
:101E50000E94C01117C01092C30414C081E0809387
:101E6000C30410C088E160E00E94E0118BE160E0F3
:101E70000E94E0118EE160E00E94E0118FEF60E0CF
:101E80000E94E01188EE97E060E072E00E944D133E
:101E90001F910F91FF90EF90DF90CF90BF90AF9088
:101EA0009F908F907F906F90089588EE97E00E94AA
:101EB000B916882309F445C088EE97E00E94CD1634
:101EC000982F8093C4058A3059F08D3049F08A33B9
:101ED00039F02091C5053091C6052F3F3105F4F04A
:101EE000E091C505F091C605309759F1EC53FB4FD1
:101EF000108288EE97E064E373E00E942E1388EE70
:101F000097E064EC74E00E944D130E94E808109280
:101F1000C7051092C6051092C50513C08B3319F47E
:101F200081E08093C7058091C705882351F4F901AA
:101F3000EC53FB4F90832F5F3F4F3093C6052093A8
:101F4000C5050E94040508950F931F9386E161E083
:101F50000E94C01189E161E00E94C0118CE161E042
:101F60000E94C01184E061E00E94C01187E161E03D
:101F70000E94C0118AE161E00E94C0118DE161E020
:101F80000E94C0118FE161E00E94C01188E161E010
:101F90000E94C0118BE161E00E94C0118EE161E0FE
:101FA0000E94C0118FEF61E00E94C01186E061E0E5
:101FB0000E94C01108EE17E0C80140E05BE460E059
:101FC00070E00E94C015C8016AE373E00E944D13DF
:101FD0001F910F9108950E945F110E94A40F0E940B
:101FE000550FFDCF382F3F7020914E042295220FC0
:101FF000220F207C232B20937C0020917B00869550
:102000008695869590E08170907033E0880F991FD7
:102010003A95E1F7277F282B20937B0080917A0067
:10202000806480937A0080917A0086FDFCCF2091B5
:10203000780040917900942F80E030E0282B392BF4
:10204000C90108951F93CF93DF93182FEB0161E02F
:102050000E94C011E12FF0E0E254FE4F84918330E2
:1020600051F480918000806880938000D093890033
:10207000C09388009FC0843051F4809180008062BA
:1020800080938000D0938B00C0938A0093C08130EE
:1020900041F4209709F487C084B5806884BDC7BD2A
:1020A00089C0823041F4209709F47DC084B58062F4
:1020B00084BDC8BD7FC0863041F48091B000806887
:1020C0008093B000C093B30075C0873041F4809115
:1020D000B00080628093B000C093B4006BC08830C1
:1020E00051F480919000806880939000D093990083
:1020F000C09398005FC0893051F480919000806255
:1021000080939000D0939B00C0939A0053C08A3074
:1021100051F480919000886080939000D0939D004E
:10212000C0939C0047C08B3051F48091A000806820
:102130008093A000D093A900C093A8003BC08491D5
:102140008C3051F48091A00080628093A000D093E5
:10215000AB00C093AA002EC08D3051F48091A00036
:1021600088608093A000D093AD00C093AC0022C0E3
:102170008E3051F480912001806880932001D093AB
:102180002901C093280116C08F3051F4809120019D
:10219000806280932001D0932B01C0932A010AC052
:1021A000C038D1051CF4812F60E002C0812F61E0AE
:1021B0000E94E011DF91CF911F9108951F920F921D
:1021C0000FB60F9211242F933F938F939F93AF934A
:1021D000BF938091D3059091D405A091D505B0917E
:1021E000D6053091D7050196A11DB11D232F2D5F76
:1021F0002D3720F02D570196A11DB11D2093D70535
:102200008093D3059093D405A093D505B093D605BC
:102210008091CF059091D005A091D105B091D205C4
:102220000196A11DB11D8093CF059093D005A09379
:10223000D105B093D205BF91AF919F918F913F91FE
:102240002F910F900FBE0F901F9018958FB7F89495
:102250002091D3053091D4054091D5055091D605F4
:102260008FBFB901CA0108956FB7F89486B590E0A1
:10227000A0E0B0E0A89B08C00097A105B10521F43B
:1022800080E091E0A0E0B0E02091CF053091D00552
:102290004091D1055091D2056FBF542F432F322F5B
:1022A0002227280F391F4A1F5B1F82E0220F331F8E
:1022B000441F551F8A95D1F7B901CA010895789432
:1022C00084B5826084BD84B5816084BD85B582603B
:1022D00085BD85B5816085BDEEE6F0E080818160D9
:1022E0008083E1E8F0E0808182608083808181608A
:1022F0008083E0E8F0E0808181608083E1EBF0E0C2
:10230000808184608083E0EBF0E080818160808365
:10231000E1E9F0E080818260808380818160808358
:10232000E1EAF0E080818260808380818160808347
:10233000E1E2F1E08081826080838081816080833E
:10234000E0E9F0E0808181608083E0EAF0E0808174
:1023500081608083E0E2F1E0808181608083EAE750
:10236000F0E08081846080838081826080838081CE
:10237000816080838081806880831092C10008958D
:10238000282F30E0C90188589E4FFC0194912E5CA3
:102390003E4FF9018491882391F0E82FF0E0EE0F91
:1023A000FF1FEC51FF4FA591B491662329F48C9146
:1023B000909589238C9308958C91892B8C93089503
:1023C000482F50E0CA0182549E4FFC012491CA015B
:1023D00088589E4FFC0194914E5C5E4FFA013491F7
:1023E000332309F477C0222309F462C0233021F497
:1023F000809180008F7705C0243031F48091800077
:102400008F7D8093800054C0213019F484B58F777C
:1024100004C0223021F484B58F7D84BD49C02630AC
:1024200021F48091B0008F7705C0273031F480917E
:10243000B0008F7D8093B0003BC0283021F48091A4
:1024400090008F7705C0293031F4809190008F7D06
:10245000809390002DC02A3021F480919000877FD6
:10246000F7CF2B3021F48091A0008F770BC02C3058
:1024700021F48091A0008F7D05C02D3031F4809132
:10248000A000877F8093A00013C02E3021F480919C
:1024900020018F770BC02F3021F4809120018F7D98
:1024A00005C0203129F480912001877F809320018D
:1024B000E32FF0E0EE0FFF1FE250FF4FA591B49124
:1024C000662329F48C91909589238C9308958C919F
:1024D000892B8C930895682F70E0CB0182549E4F16
:1024E000FC012491CB0188589E4FFC0144916E5C05
:1024F0007E4FFB019491992319F420E030E075C0E0
:10250000222309F462C0233021F4809180008F7768
:1025100005C0243031F4809180008F7D809380004D
:1025200054C0213019F484B58F7704C0223021F4CF
:1025300084B58F7D84BD49C0263021F48091B000E0
:102540008F7705C0273031F48091B0008F7D809364
:10255000B0003BC0283021F4809190008F7705C0F7
:10256000293031F4809190008F7D809390002DC0B0
:102570002A3021F480919000877FF7CF2B3021F40F
:102580008091A0008F770BC02C3021F48091A000A7
:102590008F7D05C02D3031F48091A000877F80931E
:1025A000A00013C02E3021F4809120018F770BC042
:1025B0002F3021F4809120018F7D05C0203129F436
:1025C00080912001877F80932001892F90E0880FE0
:1025D000991F885E9E4FFC01A591B4918C9120E0DB
:1025E00030E0842311F021E030E0C90108950F9319
:1025F0001F93CF93DF938C01EB0109C02196D80183
:10260000ED91FC910190F081E02DC8010995688160
:102610006623A1F7DF91CF911F910F910895EF925B
:10262000FF920F931F93CF93DF938C017B01EA01FD
:102630000CC0D7016D917D01D801ED91FC91019005
:10264000F081E02DC80109952197209791F7DF913E
:10265000CF911F910F91FF90EF900895DC01ED91C4
:10266000FC910280F381E02D099508950F931F934B
:102670008C01DC01ED91FC910190F081E02D6DE089
:102680000995D801ED91FC910190F081E02DC801F0
:102690006AE009951F910F9108950F931F938C0184
:1026A0000E942E13C8010E9436131F910F910895A6
:1026B0002F923F924F925F926F927F928F929F9252
:1026C000AF92BF92CF92DF92EF92FF920F931F9340
:1026D000DF93CF93CDB7DEB7A0970FB6F894DEBFE8
:1026E0000FBECDBF1C016A017B014115510561057B
:1026F000710549F4DC01ED91FC910190F081E02D30
:1027000060E3099554C0882499245401422E55242D
:102710006624772401E010E00C0F1D1F080D191D21
:10272000C701B601A30192010E94311AF80160832A
:102730000894811C911CA11CB11CC701B601A30106
:1027400092010E94311AC901DA016C017D01C114A4
:10275000D104E104F104F1F681E0E82EF12CEC0E55
:10276000FD1EE80CF91C3E010894611C711CD5018A
:10277000C4010197A109B1096C01C818D90814C096
:10278000F601EE0DFF1D60816A3010F4605D01C03E
:10279000695CD101ED91FC910190F081E02DC101C6
:1027A00009950894E108F1086E147F0449F7A09692
:1027B0000FB6F894DEBF0FBECDBFCF91DF911F9152
:1027C0000F91FF90EF90DF90CF90BF90AF909F90D0
:1027D0008F907F906F905F904F903F902F900895D3
:1027E0002AE00E9458130895EF92FF920F931F93CF
:1027F000CF93DF93EC017A018B0177FF0FC0E88163
:10280000F9810190F081E02D6DE209951095009518
:10281000F094E094E11CF11C011D111DCE01B801E2
:10282000A7012AE00E945813DF91CF911F910F91C9
:10283000FF90EF9008950F931F938C010E94F41363
:10284000C8010E9436131F910F9108959F92AF9275
:10285000BF92CF92DF92EF92FF920F931F93CF938D
:10286000DF93EC017A018B01922ECB01BA0120E0BB
:1028700030E040E050E00E944918882364F4E88189
:10288000F9810190F081E02DCE016DE2099517FBF1
:10289000109517F9109520E030E040E05FE3AA249E
:1028A0000BC0CA01B90120E030E040E251E40E94CF
:1028B0004D189B01AC01A394A91498F3C801B7016A
:1028C0000E94E5175B016C010E94BA187B018C0124
:1028D000CE01B801A7010E94F013992029F0CE0182
:1028E00060E473E00E942E13C801B7010E94E6184D
:1028F0009B01AC01C601B5010E94E41720C020E095
:1029000030E040E251E40E949C197B018C010E945E
:10291000B5185B016C01CC24B7FCC094DC2CCE0153
:10292000B601A5010E94F413C601B5010E94E81882
:102930009B01AC01C801B7010E94E4179A94992049
:10294000F1F6DF91CF911F910F91FF90EF90DF9003
:10295000CF90BF90AF909F90089522E00E942614E0
:1029600008950F931F938C010E94AD14C8010E941B
:1029700036131F910F9108951F920F920FB60F9269
:102980000BB60F9211242F933F934F935F936F9346
:102990007F938F939F93AF93BF93EF93FF93409158
:1029A000C600E0915806F0915906CF01019660E803
:1029B00070E00E941E1A9C0180915A0690915B065D
:1029C0002817390739F0E852FA4F408330935906F7
:1029D00020935806FF91EF91BF91AF919F918F91F6
:1029E0007F916F915F914F913F912F910F900BBE0F
:1029F0000F900FBE0F901F9018951F920F920FB659
:102A00000F920BB60F9211242F933F934F935F9326
:102A10006F937F938F939F93AF93BF93EF93FF93A6
:102A20004091CE00E091DC06F091DD06CF010196E9
:102A300060E870E00E941E1A9C018091DE06909171
:102A4000DF062817390739F0E45AF94F40833093ED
:102A5000DD062093DC06FF91EF91BF91AF919F912E
:102A60008F917F916F915F914F913F912F910F9037
:102A70000BBE0F900FBE0F901F9018951F920F92D4
:102A80000FB60F920BB60F9211242F933F934F93D3
:102A90005F936F937F938F939F93AF93BF93EF93C6
:102AA000FF934091D600E0916007F0916107CF015C
:102AB000019660E870E00E941E1A9C0180916207F6
:102AC000909163072817390739F0E052F94F408396
:102AD0003093610720936007FF91EF91BF91AF9111
:102AE0009F918F917F916F915F914F913F912F9126
:102AF0000F900BBE0F900FBE0F901F9018951F9256
:102B00000F920FB60F920BB60F9211242F933F9393
:102B10004F935F936F937F938F939F93AF93BF93E5
:102B2000EF93FF9340913601E091E407F091E507C0
:102B3000CF01019660E870E00E941E1A9C0180910E
:102B4000E6079091E7072817390739F0EC59F84F55
:102B500040833093E5072093E407FF91EF91BF9105
:102B6000AF919F918F917F916F915F914F913F9125
:102B70002F910F900BBE0F900FBE0F901F901895C6
:102B80005F926F927F928F929F92AF92BF92CF92FD
:102B9000DF92EF92FF920F931F93CF93DF93EC019D
:102BA0003A014B01413482E458078FE0680780E026
:102BB00078070CF07FC060E874E88EE190E0A40133
:102BC00093010E94531A2150304040405040CA01A6
:102BD000B90122E030E040E050E00E94531A590170
:102BE0006A01A6019501209530954095509594E095
:102BF000220F331F441F551F9A95D1F760E074E2EE
:102C000084EF90E00E94531ACA01B9012FEF30E01F
:102C100040E050E00E94FF19A40193010E94531A62
:102C2000C90181509F4F181619061CF4522E5A9450
:102C300003C055245394521A60E079E08DE390E08C
:102C4000A40193010E94531A21503040404050404B
:102C5000CA01B90122E030E040E050E00E94531A7E
:102C6000209530954095509583E0220F331F441FE7
:102C7000551F8A95D1F760E074E284EF90E00E94DE
:102C8000531ACA01B9012FEF30E040E050E00E9432
:102C9000FF19A40193010E94531AC90181509F4F4B
:102CA000181619061CF4822F815002C081E0821B85
:102CB000851500F5E885F98581E090E00A8802C075
:102CC000880F991F0A94E2F7808360E079E08DE332
:102CD00090E0A40193010E94531A215030404040DB
:102CE0005040CA01B90122E030E040E050E00E94CB
:102CF000531A04C0E885F98510829501EC81FD81A5
:102D00003083EE81FF812083EA85FB85208141E0CD
:102D100050E0CA010E8402C0880F991F0A94E2F79E
:102D2000282B2083EA85FB852081CA010F8402C0FD
:102D3000880F991F0A94E2F7282B2083EA85FB85E8
:102D40008081088802C0440F551F0A94E2F7842B43
:102D50008083DF91CF911F910F91FF90EF90DF90D3
:102D6000CF90BF90AF909F908F907F906F905F902B
:102D70000895DC011296ED91FC911397E058FF4FF6
:102D80008191919180589F4F20813181821B930BBB
:102D900060E870E00E941E1A0895CF93DF93DC0173
:102DA0001296ED91FC911397EF01CE57DF4F4881BA
:102DB0005981E058FF4F80819181E058F04084179D
:102DC000950719F42FEF3FEF0CC0E40FF51F20819A
:102DD000CA01019660E870E00E941E1A99838883F8
:102DE00030E0C901DF91CF910895DC011296ED9199
:102DF000FC911397EE57FF4F8081918192938293BC
:102E00000895FC01A085B18521898C9190E0022E66
:102E100002C0959587950A94E2F780FFF6CF048467
:102E2000F585E02D6083089523E534E03093E907CC
:102E30002093E80788ED95E09093EB078093EA07ED
:102E400085EC90E09093ED078093EC0784EC90E0A4
:102E50009093EF078093EE0780EC90E09093F1075A
:102E60008093F00781EC90E09093F3078093F20752
:102E700086EC90E09093F5078093F407E4E0E0930C
:102E8000F60773E07093F70767E06093F80755E083
:102E90005093F90741E04093FA073093FC072093E1
:102EA000FB078CE596E09093FE078093FD078DEC81
:102EB00090E0909300088093FF078CEC90E0909353
:102EC00002088093010888EC90E0909304088093B6
:102ED000030889EC90E090930608809305088EEC37
:102EE00090E09093080880930708E0930908709396
:102EF0000A0860930B0850930C0840930D08309318
:102F00000F0820930E0880EE96E0909311088093AE
:102F1000100885ED90E0909313088093120884EDDB
:102F200090E0909315088093140880ED90E09093C2
:102F300017088093160881ED90E09093190880930C
:102F4000180886ED90E090931B0880931A08E09390
:102F50001C0870931D0860931E0850931F0840932F
:102F60002008309322082093210884E697E090936C
:102F700024088093230885E391E0909326088093AA
:102F8000250884E391E0909328088093270880E344
:102F900091E090932A088093290881E391E090932F
:102FA0002C0880932B0886E391E090932E08809361
:102FB0002D08E0932F0870933008609331085093E8
:102FC00032084093330808955058BB27AA270ED0E3
:102FD00075C166D130F06BD120F031F49F3F11F410
:102FE0001EF45BC10EF4E095E7FB51C1E92F77D1E8
:102FF00080F3BA17620773078407950718F071F416
:103000009EF58FC10EF4E0950B2EBA2FA02D0B016B
:10301000B90190010C01CA01A0011124FF27591B1D
:1030200099F0593F50F4503E68F11A16F040A22F23
:10303000232F342F4427585FF3CF46953795279594
:10304000A795F0405395C9F77EF41F16BA0B620B93
:10305000730B840BBAF09150A1F0FF0FBB1F661FDA
:10306000771F881FC2F70EC0BA0F621F731F841F1D
:1030700048F4879577956795B795F7959E3F08F043
:10308000B3CF9395880F08F09927EE0F9795879502
:103090000895D9D008F481E008950CD00FC107D16C
:1030A00040F0FED030F021F45F3F19F0F0C0511134
:1030B00039C1F3C014D198F39923C9F35523B1F35F
:1030C000951B550BBB27AA2762177307840738F097
:1030D0009F5F5F4F220F331F441FAA1FA9F333D0F6
:1030E0000E2E3AF0E0E830D091505040E695001CAA
:1030F000CAF729D0FE2F27D0660F771F881FBB1F66
:10310000261737074807AB07B0E809F0BB0B802D3F
:10311000BF01FF2793585F4F2AF09E3F510568F08B
:10312000B6C000C15F3FECF3983EDCF3869577951F
:103130006795B795F7959F5FC9F7880F911D96958D
:10314000879597F90895E1E0660F771F881FBB1FE9
:10315000621773078407BA0720F0621B730B840B96
:10316000BA0BEE1F88F7E095089504D06894B1116A
:10317000D9C00895BCD088F09F5790F0B92F9927F7
:10318000B751A0F0D1F0660F771F881F991F1AF072
:10319000BA95C9F712C0B13081F0C3D0B1E008953B
:1031A000C0C0672F782F8827B85F39F0B93FCCF3BC
:1031B000869577956795B395D9F73EF49095809568
:1031C000709561957F4F8F4F9F4F0895E89409C088
:1031D00097FB3EF490958095709561957F4F8F4F4A
:1031E0009F4F9923A9F0F92F96E9BB279395F69560
:1031F000879577956795B795F111F8CFFAF4BB0FDE
:1032000011F460FF1BC06F5F7F4F8F4F9F4F16C041
:10321000882311F096E911C0772321F09EE8872FCB
:10322000762F05C0662371F096E8862F70E060E087
:103230002AF09A95660F771F881FDAF7880F969500
:10324000879597F90895990F0008550FAA0BE0E8A4
:10325000FEEF16161706E807F907C0F01216130658
:10326000E407F50798F0621B730B840B950B39F498
:103270000A2661F0232B242B252B21F408950A26FE
:1032800009F4A140A6958FEF811D811D089597F93E
:103290009F6780E870E060E008959FEF80EC0895FC
:1032A00000240A9416161706180609060895002425
:1032B0000A9412161306140605060895092E03949F
:1032C000000C11F4882352F0BB0F40F4BF2B11F413
:1032D00060FF04C06F5F7F4F8F4F9F4F089557FD72
:1032E0009058440F551F59F05F3F71F04795880F74
:1032F00097FB991F61F09F3F79F08795089512160B
:1033000013061406551FF2CF4695F1DF08C01616B6
:1033100017061806991FF1CF869571056105089467
:103320000895E894BB2766277727CB0197F908957E
:103330008ADF08F48FEF08950BD0C0CFB1DF28F0FB
:10334000B6DF18F0952309F0A2CFA7CF1124EACF5A
:10335000C6DFA0F3959FD1F3950F50E0551F629FF4
:10336000F001729FBB27F00DB11D639FAA27F00DDE
:10337000B11DAA1F649F6627B00DA11D661F829F05
:103380002227B00DA11D621F739FB00DA11D621FEA
:10339000839FA00D611D221F749F3327A00D611D07
:1033A000231F849F600D211D822F762F6A2F1124E9
:1033B0009F5750408AF0E1F088234AF0EE0FFF1F3C
:1033C000BB1F661F771F881F91505040A9F79E3F73
:1033D000510570F05CCFA6CF5F3FECF3983EDCF375
:1033E000869577956795B795F795E7959F5FC1F7B0
:1033F000FE2B880F911D9695879597F90895629FEA
:10340000D001739FF001829FE00DF11D649FE00DDC
:10341000F11D929FF00D839FF00D749FF00D659F3D
:10342000F00D9927729FB00DE11DF91F639FB00D3C
:10343000E11DF91FBD01CF011124089597FB092E4D
:1034400007260AD077FD04D049D006D000201AF410
:10345000709561957F4F0895F6F7909581959F4FF0
:103460000895A1E21A2EAA1BBB1BFD010DC0AA1FC5
:10347000BB1FEE1FFF1FA217B307E407F50720F0DD
:10348000A21BB30BE40BF50B661F771F881F991F58
:103490001A9469F760957095809590959B01AC01A1
:1034A000BD01CF01089597FB092E05260ED057FDCB
:1034B00004D0D7DF0AD0001C38F4509540953095E1
:1034C00021953F4F4F4F5F4F0895F6F790958095A8
:1034D000709561957F4F8F4F9F4F0895AA1BBB1B1F
:1034E00051E107C0AA1FBB1FA617B70710F0A61B04
:1034F000B70B881F991F5A95A9F780959095BC0125
:10350000CD010895EE0FFF1F0590F491E02D099471
:10351000911106C0803219F089508550D0F7089576
:103520009927882708952F923F924F925F926F922A
:103530007F928F929F92AF92BF92CF92DF92EF9243
:10354000FF920F931F93CF93DF93CDB7DEB7CA1BC4
:10355000DB0B0FB6F894DEBF0FBECDBF09942A88EF
:10356000398848885F846E847D848C849B84AA8497
:10357000B984C884DF80EE80FD800C811B81AA8124
:10358000B981CE0FD11D0FB6F894DEBF0FBECDBFEF
:08359000ED010895F894FFCF4E
:103598006F6B00526573656E643A000000000000AE
:1035A8000000000000000000000000000000000013
:1035B8000000000000000000000000000000000003
:1035C80000000000000000000000000000000000F3
:1035D80000000000000000000000000000000000E3
:1035E80000000000000000000000000000000000D3
:1035F800000000000000004D313130005365726951
:10360800616C204572726F723A204C696E65204E6B
:10361800756D626572206973206E6F74204C6173DA
:1036280074204C696E65204E756D6265722B312C65
:10363800204C617374204C696E653A004572726F54
:10364800723A20636865636B73756D206D69736D7D
:10365800617463682C204C617374204C696E653A00
:10366800004572726F723A204E6F20436865636B33
:1036780073756D2077697468206C696E65206E7546
:103688006D6265722C204C617374204C696E653ACA
:10369800004572726F723A204E6F204C696E652039
:1036A8004E756D626572207769746820636865631A
:1036B8006B73756D2C204C617374204C696E653A80
:1036C80000543A004563686F3A007374617274007D
:1036D8002E0000002041000020410000A0436ABCE9
:1036E800343F00803B4517002C01190027011B00BF
:1036F80022011C001D011F001801210013012300D5
:103708000E0126000901290004012C00FF003000E9
:10371800FA003400F5003800F0003D00EB004200EC
:10372800E6004700E1004E00DC005400D7005C00D2
:10373800D2006400CD006D00C8007800C30083008B
:10374800BE008F00B9009C00B400AB00AF00BB0006
:10375800AA00CD00A500E000A000F5009B000C0128
:1037680096002501910040018C005C0187007B01D7
:1037780082009B017D00BD017800E0017300040216
:103788006E00290269004F02640074025F0099020A
:103798005A00BE025500E102500002034B0021030B
:1037A80046003E03410059033C007103370087037C
:1037B80032009A032D00AB032800BA032300C60386
:1037C8001E00D1031900D9031400E1030F00E70319
:1037D8000A00EC030500F00300000080BB44010070
:0A37E8000000000117F7120F130094
:00000001FF
